:100000000EC01BC01BC019C018C017C016C015C039
:1000100014C013C012C011C010C00FC00EC01124F4
:100020001FBECFEDCDBF10E0A0E6B0E001C01D9235
:10003000AC36B107E1F70CD027C1E2CF1F920F9287
:100040000FB60F9211240F900FBE0F901F901895AE
:10005000CF93DF93F8949FEF90BD17BC20E826BDA7
:1000600016BC97BB18BAB898C09A80B58E7F80BD71
:10007000BA98C29881E287B984E084BB86E986B9E0
:10008000369A80B58B7F80BD19BE98BF12BE1CBC4E
:100090008CE989BD82E08ABD85E083BF80B5877F1A
:1000A00080BD19BE98BF1FBC1CBC9DBD9EBD20BF9E
:1000B000B99AC19881E0809369001092670010920C
:1000C000660010926800109265001092640082E44D
:1000D00080936B00F0916A0020E030E040E050E057
:1000E00062E4E0E091E0C0E6D9E0913009F061C05F
:1000F000349B5FC085B1349A6150603408F058C0B9
:10010000480F511D662309F053C0CA0167E070E033
:10011000A7D07093610060936000B09B09C02091EC
:10012000600030916100809160009091610034C066
:10013000809160009091610055E0969587955A9561
:10014000E1F790E0FF2389F0820F931F29E08036CA
:10015000920730F0D0936300C0936200F0E014C0C7
:1001600090936300809362000FC02817390730F422
:100170001092630010926200F1E006C0281B390B58
:1001800030936300209362002091620030916300FD
:1001900080916200909163009695879596958795DA
:1001A000909363008093620040E050E062E490E04E
:1001B000369A08B604FE06C088B7806188BFC19A27
:1001C000E1E093CFE13009F090CF80E00000000043
:1001D000000000000000000000000000000000001F
:1001E000000000000000000000000000000000000F
:1001F00000000000000000000000000000000000FF
:1002000000000000000000000000000000000000EE
:1002100000000000000000000000000000000000DE
:1002200000000000000000000000000000000000CE
:100230008F5F823809F0CACF09C080916200909127
:100240006300019790936300809362008091620045
:1002500090916300892B89F7C198E0E091E048CF45
:10026000AA1BBB1B51E107C0AA1FBB1FA617B707DC
:1002700010F0A61BB70B881F991F5A95A9F78095F8
:0C0280009095BC01CD010895F894FFCFCB
:00000001FF
