:100000000EC028C027C026C025C024C023C022C0DF
:1000100021C020C029C01EC01DC01CC01BC011248F
:100020001FBECFE5D1E0DEBFCDBF10E0A0E6B0E05F
:10003000E2ECF2E002C005900D92A436B107D9F7C8
:1000400020E0A4E6B0E001C01D92A537B207E1F7B9
:1000500037D035C1D5CF009731F02AE12A95F1F795
:1000600000C00197D1F708951F920F920FB60F921B
:1000700011242F933F934F935F936F937F938F93AD
:100080009F93AF93BF93EF93FF9398B382E0892739
:1000900088BB8091600090916100DDDFC198FF9185
:1000A000EF91BF91AF919F918F917F916F915F91F0
:1000B0004F913F912F910F900FBE0F901F90189569
:1000C00088EE93E090937300809372008AE490E04E
:1000D000909371008093700010926F0010926E00E8
:1000E000F89482E087BBC09A91E297B997E896B9F5
:1000F0008ABD85E083BF80E589BD80E189BF8DE849
:1001000080BF89E08EBD8DBD7894369A349BFECF3A
:10011000349A45B1242F30E030936D0020936C0069
:10012000842F90E0A0E0B0E0BA2FA92F982F882765
:100130008093640090936500A0936600B09367007D
:100140004093680010926900C90196958795855B78
:100150009F4F909361008093600026E430E0ECE6CE
:10016000F0E0C1E0369A349BFECF349A85B14091DD
:1001700064005091650060916600709167007A019B
:100180008B01E80EF11C011D111DD801C701452F7F
:10019000562F672F7727841B950BA60BB70B8093E1
:1001A000640090936500A0936600B0936700892F68
:1001B0009A2FAB2FBB27AC0190936D0080936C00FE
:1001C000B09B18C06091680070916900681B790B42
:1001D0006D5F7F4F6730710528F2909369008093BF
:1001E000680056954795455B5F4F5093610040937B
:1001F0006000B8CF8B30910508F4B4CF5695479581
:1002000056954795C901841B950B90936D0080937B
:100210006C0040916A0050916B00BA01681B790B29
:100220006630710530F48C01041B150B0630110586
:1002300070F04FB54630E8F78EBD80818DBD80915E
:100240006C0090916D0090936B0080936A0008B6EB
:1002500006FE88CF88B7806488BF809162008130B5
:1002600051F480916000909161000196909361003B
:100270008093600009C080916000909161000197B7
:100280009093610080936000809160009091610084
:100290008D3C910540F00197909361008093600040
:1002A000109262005FCF8C34910508F05BCF01960D
:1002B0009093610080936000C093620053CFF894E4
:0202C000FFCF6E
:0402C200A000010097
:00000001FF
